{
  "_format": "hh-sol-artifact-1",
  "contractName": "FundraiserFactory",
  "sourceName": "contracts/FundraiserFactory.sol",
  "abi": [
    {
      "anonymous": false,
      "inputs": [
        {
          "indexed": true,
          "internalType": "contract Fundraiser",
          "name": "fundraiser",
          "type": "address"
        },
        {
          "indexed": true,
          "internalType": "address",
          "name": "owner",
          "type": "address"
        }
      ],
      "name": "FundraiserCreated",
      "type": "event"
    },
    {
      "inputs": [
        {
          "internalType": "string",
          "name": "_name",
          "type": "string"
        },
        {
          "internalType": "string",
          "name": "_url",
          "type": "string"
        },
        {
          "internalType": "string",
          "name": "_imageURL",
          "type": "string"
        },
        {
          "internalType": "string",
          "name": "_description",
          "type": "string"
        },
        {
          "internalType": "address payable",
          "name": "_beneficiary",
          "type": "address"
        }
      ],
      "name": "createFundraiser",
      "outputs": [],
      "stateMutability": "nonpayable",
      "type": "function"
    },
    {
      "inputs": [
        {
          "internalType": "uint256",
          "name": "limit",
          "type": "uint256"
        },
        {
          "internalType": "uint256",
          "name": "offset",
          "type": "uint256"
        }
      ],
      "name": "fundraisers",
      "outputs": [
        {
          "internalType": "contract Fundraiser[]",
          "name": "coll",
          "type": "address[]"
        }
      ],
      "stateMutability": "view",
      "type": "function"
    },
    {
      "inputs": [],
      "name": "fundraisersCount",
      "outputs": [
        {
          "internalType": "uint256",
          "name": "",
          "type": "uint256"
        }
      ],
      "stateMutability": "view",
      "type": "function"
    }
  ],
  "bytecode": "0x608060405234801561001057600080fd5b50612732806100206000396000f3fe60806040523480156200001157600080fd5b5060043610620000465760003560e01c806311d752ad146200004b578063704914f8146200006b5780639d3b435514620000a1575b600080fd5b620000696004803603810190620000639190620004a1565b620000c3565b005b62000089600480360381019062000083919062000587565b620001cf565b604051620000989190620006f8565b60405180910390f35b620000ab620003e7565b604051620000ba9190620007c7565b60405180910390f35b6000858585858533604051620000d990620003f3565b620000ea969594939291906200071c565b604051809103906000f08015801562000107573d6000803e3d6000fd5b5090506000819080600181540180825580915050600190039060005260206000200160009091909190916101000a81548173ffffffffffffffffffffffffffffffffffffffff021916908373ffffffffffffffffffffffffffffffffffffffff1602179055503373ffffffffffffffffffffffffffffffffffffffff168173ffffffffffffffffffffffffffffffffffffffff167fa2398daac0c8053a1e3c0280916c2ec6bc884f0959c27e639a4db829b7eabfb160405160405180910390a3505050505050565b6060620001db620003e7565b82111562000220576040517f08c379a00000000000000000000000000000000000000000000000000000000081526004016200021790620007a5565b60405180910390fd5b6000826200022d620003e7565b620002399190620008f5565b90508381106200024a57836200024c565b805b9050601481106200025f57601462000261565b805b90508067ffffffffffffffff811115620002a4577f4e487b7100000000000000000000000000000000000000000000000000000000600052604160045260246000fd5b604051908082528060200260200182016040528015620002d35781602001602082028036833780820191505090505b50915060005b81811015620003df5760008185620002f2919062000898565b815481106200032a577f4e487b7100000000000000000000000000000000000000000000000000000000600052603260045260246000fd5b9060005260206000200160009054906101000a900473ffffffffffffffffffffffffffffffffffffffff168382815181106200038f577f4e487b7100000000000000000000000000000000000000000000000000000000600052603260045260246000fd5b602002602001019073ffffffffffffffffffffffffffffffffffffffff16908173ffffffffffffffffffffffffffffffffffffffff16815250508080620003d69062000a25565b915050620002d9565b505092915050565b60008080549050905090565b611bbd8062000b4083390190565b60006200041862000412846200080d565b620007e4565b9050828152602081018484840111156200043157600080fd5b6200043e848285620009aa565b509392505050565b600081359050620004578162000b0b565b92915050565b600082601f8301126200046f57600080fd5b81356200048184826020860162000401565b91505092915050565b6000813590506200049b8162000b25565b92915050565b600080600080600060a08688031215620004ba57600080fd5b600086013567ffffffffffffffff811115620004d557600080fd5b620004e3888289016200045d565b955050602086013567ffffffffffffffff8111156200050157600080fd5b6200050f888289016200045d565b945050604086013567ffffffffffffffff8111156200052d57600080fd5b6200053b888289016200045d565b935050606086013567ffffffffffffffff8111156200055957600080fd5b62000567888289016200045d565b92505060806200057a8882890162000446565b9150509295509295909350565b600080604083850312156200059b57600080fd5b6000620005ab858286016200048a565b9250506020620005be858286016200048a565b9150509250929050565b6000620005d683836200066e565b60208301905092915050565b620005ed8162000944565b82525050565b620005fe8162000930565b82525050565b6000620006118262000853565b6200061d818562000876565b93506200062a8362000843565b8060005b8381101562000661578151620006458882620005c8565b9750620006528362000869565b9250506001810190506200062e565b5085935050505092915050565b620006798162000982565b82525050565b60006200068c826200085e565b62000698818562000887565b9350620006aa818560208601620009b9565b620006b58162000ad1565b840191505092915050565b6000620006cf60148362000887565b9150620006dc8262000ae2565b602082019050919050565b620006f28162000978565b82525050565b6000602082019050818103600083015262000714818462000604565b905092915050565b600060c08201905081810360008301526200073881896200067f565b905081810360208301526200074e81886200067f565b905081810360408301526200076481876200067f565b905081810360608301526200077a81866200067f565b90506200078b6080830185620005e2565b6200079a60a0830184620005f3565b979650505050505050565b60006020820190508181036000830152620007c081620006c0565b9050919050565b6000602082019050620007de6000830184620006e7565b92915050565b6000620007f062000803565b9050620007fe8282620009ef565b919050565b6000604051905090565b600067ffffffffffffffff8211156200082b576200082a62000aa2565b5b620008368262000ad1565b9050602081019050919050565b6000819050602082019050919050565b600081519050919050565b600081519050919050565b6000602082019050919050565b600082825260208201905092915050565b600082825260208201905092915050565b6000620008a58262000978565b9150620008b28362000978565b9250827fffffffffffffffffffffffffffffffffffffffffffffffffffffffffffffffff03821115620008ea57620008e962000a73565b5b828201905092915050565b6000620009028262000978565b91506200090f8362000978565b92508282101562000925576200092462000a73565b5b828203905092915050565b60006200093d8262000958565b9050919050565b6000620009518262000958565b9050919050565b600073ffffffffffffffffffffffffffffffffffffffff82169050919050565b6000819050919050565b60006200098f8262000996565b9050919050565b6000620009a38262000958565b9050919050565b82818337600083830152505050565b60005b83811015620009d9578082015181840152602081019050620009bc565b83811115620009e9576000848401525b50505050565b620009fa8262000ad1565b810181811067ffffffffffffffff8211171562000a1c5762000a1b62000aa2565b5b80604052505050565b600062000a328262000978565b91507fffffffffffffffffffffffffffffffffffffffffffffffffffffffffffffffff82141562000a685762000a6762000a73565b5b600182019050919050565b7f4e487b7100000000000000000000000000000000000000000000000000000000600052601160045260246000fd5b7f4e487b7100000000000000000000000000000000000000000000000000000000600052604160045260246000fd5b6000601f19601f8301169050919050565b7f6f6666736574206f7574206f6620626f756e6473000000000000000000000000600082015250565b62000b168162000944565b811462000b2257600080fd5b50565b62000b308162000978565b811462000b3c57600080fd5b5056fe60806040523480156200001157600080fd5b5060405162001bbd38038062001bbd833981810160405281019062000037919062000474565b620000576200004b6200011960201b60201c565b6200012160201b60201c565b85600190805190602001906200006f92919062000324565b5084600290805190602001906200008892919062000324565b508360039080519060200190620000a192919062000324565b508260049080519060200190620000ba92919062000324565b5081600560006101000a81548173ffffffffffffffffffffffffffffffffffffffff021916908373ffffffffffffffffffffffffffffffffffffffff1602179055506200010d81620001e560201b60201c565b50505050505062000875565b600033905090565b60008060009054906101000a900473ffffffffffffffffffffffffffffffffffffffff169050816000806101000a81548173ffffffffffffffffffffffffffffffffffffffff021916908373ffffffffffffffffffffffffffffffffffffffff1602179055508173ffffffffffffffffffffffffffffffffffffffff168173ffffffffffffffffffffffffffffffffffffffff167f8be0079c531659141344cd1fd0a4f28419497f9722a3daafe3b4186f6b6457e060405160405180910390a35050565b620001f56200011960201b60201c565b73ffffffffffffffffffffffffffffffffffffffff166200021b620002fb60201b60201c565b73ffffffffffffffffffffffffffffffffffffffff161462000274576040517f08c379a00000000000000000000000000000000000000000000000000000000081526004016200026b90620005de565b60405180910390fd5b600073ffffffffffffffffffffffffffffffffffffffff168173ffffffffffffffffffffffffffffffffffffffff161415620002e7576040517f08c379a0000000000000000000000000000000000000000000000000000000008152600401620002de90620005bc565b60405180910390fd5b620002f8816200012160201b60201c565b50565b60008060009054906101000a900473ffffffffffffffffffffffffffffffffffffffff16905090565b8280546200033290620006ee565b90600052602060002090601f016020900481019282620003565760008555620003a2565b82601f106200037157805160ff1916838001178555620003a2565b82800160010185558215620003a2579182015b82811115620003a157825182559160200191906001019062000384565b5b509050620003b19190620003b5565b5090565b5b80821115620003d0576000816000905550600101620003b6565b5090565b6000620003eb620003e58462000629565b62000600565b9050828152602081018484840111156200040457600080fd5b62000411848285620006b8565b509392505050565b6000815190506200042a8162000841565b92915050565b60008151905062000441816200085b565b92915050565b600082601f8301126200045957600080fd5b81516200046b848260208601620003d4565b91505092915050565b60008060008060008060c087890312156200048e57600080fd5b600087015167ffffffffffffffff811115620004a957600080fd5b620004b789828a0162000447565b965050602087015167ffffffffffffffff811115620004d557600080fd5b620004e389828a0162000447565b955050604087015167ffffffffffffffff8111156200050157600080fd5b6200050f89828a0162000447565b945050606087015167ffffffffffffffff8111156200052d57600080fd5b6200053b89828a0162000447565b93505060806200054e89828a0162000430565b92505060a06200056189828a0162000419565b9150509295509295509295565b60006200057d6026836200065f565b91506200058a82620007c9565b604082019050919050565b6000620005a46020836200065f565b9150620005b18262000818565b602082019050919050565b60006020820190508181036000830152620005d7816200056e565b9050919050565b60006020820190508181036000830152620005f98162000595565b9050919050565b60006200060c6200061f565b90506200061a828262000724565b919050565b6000604051905090565b600067ffffffffffffffff82111562000647576200064662000789565b5b6200065282620007b8565b9050602081019050919050565b600082825260208201905092915050565b60006200067d8262000698565b9050919050565b6000620006918262000698565b9050919050565b600073ffffffffffffffffffffffffffffffffffffffff82169050919050565b60005b83811015620006d8578082015181840152602081019050620006bb565b83811115620006e8576000848401525b50505050565b600060028204905060018216806200070757607f821691505b602082108114156200071e576200071d6200075a565b5b50919050565b6200072f82620007b8565b810181811067ffffffffffffffff8211171562000751576200075062000789565b5b80604052505050565b7f4e487b7100000000000000000000000000000000000000000000000000000000600052602260045260246000fd5b7f4e487b7100000000000000000000000000000000000000000000000000000000600052604160045260246000fd5b6000601f19601f8301169050919050565b7f4f776e61626c653a206e6577206f776e657220697320746865207a65726f206160008201527f6464726573730000000000000000000000000000000000000000000000000000602082015250565b7f4f776e61626c653a2063616c6c6572206973206e6f7420746865206f776e6572600082015250565b6200084c8162000670565b81146200085857600080fd5b50565b620008668162000684565b81146200087257600080fd5b50565b61133880620008856000396000f3fe6080604052600436106100ec5760003560e01c80635600f04f1161008a578063b90497e011610059578063b90497e0146102d1578063de2ed893146102fc578063ed88c68e14610327578063f2fde38b146103315761011f565b80635600f04f14610239578063715018a6146102645780637284e4161461027b5780638da5cb5b146102a65761011f565b80631c31f710116100c65780631c31f710146101a35780631f522595146101cc57806338af3eed146101f75780633ccfd60b146102225761011f565b80630180b97c1461012157806306fdde031461014c5780631a57f7b4146101775761011f565b3661011f57346007546100ff919061109b565b60078190555060086000815480929190610118906111a4565b9190505550005b005b34801561012d57600080fd5b5061013661035a565b604051610143919061102b565b60405180910390f35b34801561015857600080fd5b506101616103a4565b60405161016e9190610fc9565b60405180910390f35b34801561018357600080fd5b5061018c610432565b60405161019a929190610f92565b60405180910390f35b3480156101af57600080fd5b506101ca60048036038101906101c59190610e02565b610665565b005b3480156101d857600080fd5b506101e1610725565b6040516101ee919061102b565b60405180910390f35b34801561020357600080fd5b5061020c61072b565b6040516102199190610f77565b60405180910390f35b34801561022e57600080fd5b50610237610751565b005b34801561024557600080fd5b5061024e610875565b60405161025b9190610fc9565b60405180910390f35b34801561027057600080fd5b50610279610903565b005b34801561028757600080fd5b5061029061098b565b60405161029d9190610fc9565b60405180910390f35b3480156102b257600080fd5b506102bb610a19565b6040516102c89190610f5c565b60405180910390f35b3480156102dd57600080fd5b506102e6610a42565b6040516102f39190610fc9565b60405180910390f35b34801561030857600080fd5b50610311610ad0565b60405161031e919061102b565b60405180910390f35b61032f610ad6565b005b34801561033d57600080fd5b5061035860048036038101906103539190610dd9565b610beb565b005b6000600660003373ffffffffffffffffffffffffffffffffffffffff1673ffffffffffffffffffffffffffffffffffffffff16815260200190815260200160002080549050905090565b600180546103b190611172565b80601f01602080910402602001604051908101604052809291908181526020018280546103dd90611172565b801561042a5780601f106103ff5761010080835404028352916020019161042a565b820191906000526020600020905b81548152906001019060200180831161040d57829003601f168201915b505050505081565b606080600061043f61035a565b90508067ffffffffffffffff811115610481577f4e487b7100000000000000000000000000000000000000000000000000000000600052604160045260246000fd5b6040519080825280602002602001820160405280156104af5781602001602082028036833780820191505090505b5092508067ffffffffffffffff8111156104f2577f4e487b7100000000000000000000000000000000000000000000000000000000600052604160045260246000fd5b6040519080825280602002602001820160405280156105205781602001602082028036833780820191505090505b50915060005b8181101561065f576000600660003373ffffffffffffffffffffffffffffffffffffffff1673ffffffffffffffffffffffffffffffffffffffff16815260200190815260200160002082815481106105a7577f4e487b7100000000000000000000000000000000000000000000000000000000600052603260045260246000fd5b9060005260206000209060020201905080600001548583815181106105f5577f4e487b7100000000000000000000000000000000000000000000000000000000600052603260045260246000fd5b602002602001018181525050806001015484838151811061063f577f4e487b7100000000000000000000000000000000000000000000000000000000600052603260045260246000fd5b602002602001018181525050508080610657906111a4565b915050610526565b50509091565b61066d610ce3565b73ffffffffffffffffffffffffffffffffffffffff1661068b610a19565b73ffffffffffffffffffffffffffffffffffffffff16146106e1576040517f08c379a00000000000000000000000000000000000000000000000000000000081526004016106d89061100b565b60405180910390fd5b80600560006101000a81548173ffffffffffffffffffffffffffffffffffffffff021916908373ffffffffffffffffffffffffffffffffffffffff16021790555050565b60085481565b600560009054906101000a900473ffffffffffffffffffffffffffffffffffffffff1681565b610759610ce3565b73ffffffffffffffffffffffffffffffffffffffff16610777610a19565b73ffffffffffffffffffffffffffffffffffffffff16146107cd576040517f08c379a00000000000000000000000000000000000000000000000000000000081526004016107c49061100b565b60405180910390fd5b6000479050600560009054906101000a900473ffffffffffffffffffffffffffffffffffffffff1673ffffffffffffffffffffffffffffffffffffffff166108fc829081150290604051600060405180830381858888f1935050505015801561083a573d6000803e3d6000fd5b507f5b6b431d4476a211bb7d41c20d1aab9ae2321deee0d20be3d9fc9b1093fa6e3d8160405161086a919061102b565b60405180910390a150565b6002805461088290611172565b80601f01602080910402602001604051908101604052809291908181526020018280546108ae90611172565b80156108fb5780601f106108d0576101008083540402835291602001916108fb565b820191906000526020600020905b8154815290600101906020018083116108de57829003601f168201915b505050505081565b61090b610ce3565b73ffffffffffffffffffffffffffffffffffffffff16610929610a19565b73ffffffffffffffffffffffffffffffffffffffff161461097f576040517f08c379a00000000000000000000000000000000000000000000000000000000081526004016109769061100b565b60405180910390fd5b6109896000610ceb565b565b6004805461099890611172565b80601f01602080910402602001604051908101604052809291908181526020018280546109c490611172565b8015610a115780601f106109e657610100808354040283529160200191610a11565b820191906000526020600020905b8154815290600101906020018083116109f457829003601f168201915b505050505081565b60008060009054906101000a900473ffffffffffffffffffffffffffffffffffffffff16905090565b60038054610a4f90611172565b80601f0160208091040260200160405190810160405280929190818152602001828054610a7b90611172565b8015610ac85780601f10610a9d57610100808354040283529160200191610ac8565b820191906000526020600020905b815481529060010190602001808311610aab57829003601f168201915b505050505081565b60075481565b60006040518060400160405280348152602001428152509050600660003373ffffffffffffffffffffffffffffffffffffffff1673ffffffffffffffffffffffffffffffffffffffff1681526020019081526020016000208190806001815401808255809150506001900390600052602060002090600202016000909190919091506000820151816000015560208201518160010155505034600754610b7c919061109b565b60078190555060086000815480929190610b95906111a4565b91905055503373ffffffffffffffffffffffffffffffffffffffff167f264f630d9efa0d07053a31163641d9fcc0adafc9d9e76f1c37c2ce3a558d2c5234604051610be0919061102b565b60405180910390a250565b610bf3610ce3565b73ffffffffffffffffffffffffffffffffffffffff16610c11610a19565b73ffffffffffffffffffffffffffffffffffffffff1614610c67576040517f08c379a0000000000000000000000000000000000000000000000000000000008152600401610c5e9061100b565b60405180910390fd5b600073ffffffffffffffffffffffffffffffffffffffff168173ffffffffffffffffffffffffffffffffffffffff161415610cd7576040517f08c379a0000000000000000000000000000000000000000000000000000000008152600401610cce90610feb565b60405180910390fd5b610ce081610ceb565b50565b600033905090565b60008060009054906101000a900473ffffffffffffffffffffffffffffffffffffffff169050816000806101000a81548173ffffffffffffffffffffffffffffffffffffffff021916908373ffffffffffffffffffffffffffffffffffffffff1602179055508173ffffffffffffffffffffffffffffffffffffffff168173ffffffffffffffffffffffffffffffffffffffff167f8be0079c531659141344cd1fd0a4f28419497f9722a3daafe3b4186f6b6457e060405160405180910390a35050565b600081359050610dbe816112d4565b92915050565b600081359050610dd3816112eb565b92915050565b600060208284031215610deb57600080fd5b6000610df984828501610daf565b91505092915050565b600060208284031215610e1457600080fd5b6000610e2284828501610dc4565b91505092915050565b6000610e378383610f3e565b60208301905092915050565b610e4c81611103565b82525050565b610e5b816110f1565b82525050565b6000610e6c82611056565b610e768185611079565b9350610e8183611046565b8060005b83811015610eb2578151610e998882610e2b565b9750610ea48361106c565b925050600181019050610e85565b5085935050505092915050565b6000610eca82611061565b610ed4818561108a565b9350610ee481856020860161113f565b610eed8161124b565b840191505092915050565b6000610f0560268361108a565b9150610f108261125c565b604082019050919050565b6000610f2860208361108a565b9150610f33826112ab565b602082019050919050565b610f4781611135565b82525050565b610f5681611135565b82525050565b6000602082019050610f716000830184610e52565b92915050565b6000602082019050610f8c6000830184610e43565b92915050565b60006040820190508181036000830152610fac8185610e61565b90508181036020830152610fc08184610e61565b90509392505050565b60006020820190508181036000830152610fe38184610ebf565b905092915050565b6000602082019050818103600083015261100481610ef8565b9050919050565b6000602082019050818103600083015261102481610f1b565b9050919050565b60006020820190506110406000830184610f4d565b92915050565b6000819050602082019050919050565b600081519050919050565b600081519050919050565b6000602082019050919050565b600082825260208201905092915050565b600082825260208201905092915050565b60006110a682611135565b91506110b183611135565b9250827fffffffffffffffffffffffffffffffffffffffffffffffffffffffffffffffff038211156110e6576110e56111ed565b5b828201905092915050565b60006110fc82611115565b9050919050565b600061110e82611115565b9050919050565b600073ffffffffffffffffffffffffffffffffffffffff82169050919050565b6000819050919050565b60005b8381101561115d578082015181840152602081019050611142565b8381111561116c576000848401525b50505050565b6000600282049050600182168061118a57607f821691505b6020821081141561119e5761119d61121c565b5b50919050565b60006111af82611135565b91507fffffffffffffffffffffffffffffffffffffffffffffffffffffffffffffffff8214156111e2576111e16111ed565b5b600182019050919050565b7f4e487b7100000000000000000000000000000000000000000000000000000000600052601160045260246000fd5b7f4e487b7100000000000000000000000000000000000000000000000000000000600052602260045260246000fd5b6000601f19601f8301169050919050565b7f4f776e61626c653a206e6577206f776e657220697320746865207a65726f206160008201527f6464726573730000000000000000000000000000000000000000000000000000602082015250565b7f4f776e61626c653a2063616c6c6572206973206e6f7420746865206f776e6572600082015250565b6112dd816110f1565b81146112e857600080fd5b50565b6112f481611103565b81146112ff57600080fd5b5056fea26469706673582212207f54a27b82ab0660a5623fbcc56846abaf09a251b2d9ddbc1b5adaa19d5bd46064736f6c63430008040033a26469706673582212207ff0a9b4dc2025a0cd500216638e2db0d94f4e0c8a2230e5086302c7e2d8429e64736f6c63430008040033",
  "linkReferences": {},
  "deployedLinkReferences": {}
}